{
  "_format": "hh3-artifact-1",
  "contractName": "SvgNft",
  "sourceName": "contracts/SvgNft.sol",
  "abi": [
    {
      "inputs": [],
      "stateMutability": "nonpayable",
      "type": "constructor"
    },
    {
      "inputs": [
        {
          "internalType": "address",
          "name": "sender",
          "type": "address"
        },
        {
          "internalType": "uint256",
          "name": "tokenId",
          "type": "uint256"
        },
        {
          "internalType": "address",
          "name": "owner",
          "type": "address"
        }
      ],
      "name": "ERC721IncorrectOwner",
      "type": "error"
    },
    {
      "inputs": [
        {
          "internalType": "address",
          "name": "operator",
          "type": "address"
        },
        {
          "internalType": "uint256",
          "name": "tokenId",
          "type": "uint256"
        }
      ],
      "name": "ERC721InsufficientApproval",
      "type": "error"
    },
    {
      "inputs": [
        {
          "internalType": "address",
          "name": "approver",
          "type": "address"
        }
      ],
      "name": "ERC721InvalidApprover",
      "type": "error"
    },
    {
      "inputs": [
        {
          "internalType": "address",
          "name": "operator",
          "type": "address"
        }
      ],
      "name": "ERC721InvalidOperator",
      "type": "error"
    },
    {
      "inputs": [
        {
          "internalType": "address",
          "name": "owner",
          "type": "address"
        }
      ],
      "name": "ERC721InvalidOwner",
      "type": "error"
    },
    {
      "inputs": [
        {
          "internalType": "address",
          "name": "receiver",
          "type": "address"
        }
      ],
      "name": "ERC721InvalidReceiver",
      "type": "error"
    },
    {
      "inputs": [
        {
          "internalType": "address",
          "name": "sender",
          "type": "address"
        }
      ],
      "name": "ERC721InvalidSender",
      "type": "error"
    },
    {
      "inputs": [
        {
          "internalType": "uint256",
          "name": "tokenId",
          "type": "uint256"
        }
      ],
      "name": "ERC721NonexistentToken",
      "type": "error"
    },
    {
      "inputs": [],
      "name": "Invalid_address",
      "type": "error"
    },
    {
      "inputs": [],
      "name": "Invalid_id",
      "type": "error"
    },
    {
      "inputs": [
        {
          "internalType": "address",
          "name": "owner",
          "type": "address"
        }
      ],
      "name": "OwnableInvalidOwner",
      "type": "error"
    },
    {
      "inputs": [
        {
          "internalType": "address",
          "name": "account",
          "type": "address"
        }
      ],
      "name": "OwnableUnauthorizedAccount",
      "type": "error"
    },
    {
      "anonymous": false,
      "inputs": [
        {
          "indexed": true,
          "internalType": "address",
          "name": "owner",
          "type": "address"
        },
        {
          "indexed": true,
          "internalType": "address",
          "name": "approved",
          "type": "address"
        },
        {
          "indexed": true,
          "internalType": "uint256",
          "name": "tokenId",
          "type": "uint256"
        }
      ],
      "name": "Approval",
      "type": "event"
    },
    {
      "anonymous": false,
      "inputs": [
        {
          "indexed": true,
          "internalType": "address",
          "name": "owner",
          "type": "address"
        },
        {
          "indexed": true,
          "internalType": "address",
          "name": "operator",
          "type": "address"
        },
        {
          "indexed": false,
          "internalType": "bool",
          "name": "approved",
          "type": "bool"
        }
      ],
      "name": "ApprovalForAll",
      "type": "event"
    },
    {
      "anonymous": false,
      "inputs": [
        {
          "indexed": true,
          "internalType": "address",
          "name": "previousOwner",
          "type": "address"
        },
        {
          "indexed": true,
          "internalType": "address",
          "name": "newOwner",
          "type": "address"
        }
      ],
      "name": "OwnershipTransferred",
      "type": "event"
    },
    {
      "anonymous": false,
      "inputs": [
        {
          "indexed": true,
          "internalType": "address",
          "name": "from",
          "type": "address"
        },
        {
          "indexed": true,
          "internalType": "address",
          "name": "to",
          "type": "address"
        },
        {
          "indexed": true,
          "internalType": "uint256",
          "name": "tokenId",
          "type": "uint256"
        }
      ],
      "name": "Transfer",
      "type": "event"
    },
    {
      "anonymous": false,
      "inputs": [
        {
          "indexed": false,
          "internalType": "address",
          "name": "_address",
          "type": "address"
        },
        {
          "indexed": false,
          "internalType": "uint256",
          "name": "tokenId",
          "type": "uint256"
        }
      ],
      "name": "Withdrawn",
      "type": "event"
    },
    {
      "anonymous": false,
      "inputs": [
        {
          "indexed": false,
          "internalType": "address",
          "name": "_address",
          "type": "address"
        },
        {
          "indexed": false,
          "internalType": "uint256",
          "name": "tokenId",
          "type": "uint256"
        }
      ],
      "name": "minted",
      "type": "event"
    },
    {
      "inputs": [
        {
          "internalType": "address",
          "name": "to",
          "type": "address"
        },
        {
          "internalType": "uint256",
          "name": "tokenId",
          "type": "uint256"
        }
      ],
      "name": "approve",
      "outputs": [],
      "stateMutability": "nonpayable",
      "type": "function"
    },
    {
      "inputs": [
        {
          "internalType": "address",
          "name": "owner",
          "type": "address"
        }
      ],
      "name": "balanceOf",
      "outputs": [
        {
          "internalType": "uint256",
          "name": "",
          "type": "uint256"
        }
      ],
      "stateMutability": "view",
      "type": "function"
    },
    {
      "inputs": [
        {
          "internalType": "uint256",
          "name": "tokenId",
          "type": "uint256"
        }
      ],
      "name": "getApproved",
      "outputs": [
        {
          "internalType": "address",
          "name": "",
          "type": "address"
        }
      ],
      "stateMutability": "view",
      "type": "function"
    },
    {
      "inputs": [
        {
          "internalType": "address",
          "name": "owner",
          "type": "address"
        },
        {
          "internalType": "address",
          "name": "operator",
          "type": "address"
        }
      ],
      "name": "isApprovedForAll",
      "outputs": [
        {
          "internalType": "bool",
          "name": "",
          "type": "bool"
        }
      ],
      "stateMutability": "view",
      "type": "function"
    },
    {
      "inputs": [],
      "name": "mint",
      "outputs": [
        {
          "internalType": "uint256",
          "name": "",
          "type": "uint256"
        }
      ],
      "stateMutability": "payable",
      "type": "function"
    },
    {
      "inputs": [],
      "name": "name",
      "outputs": [
        {
          "internalType": "string",
          "name": "",
          "type": "string"
        }
      ],
      "stateMutability": "view",
      "type": "function"
    },
    {
      "inputs": [],
      "name": "owner",
      "outputs": [
        {
          "internalType": "address",
          "name": "",
          "type": "address"
        }
      ],
      "stateMutability": "view",
      "type": "function"
    },
    {
      "inputs": [
        {
          "internalType": "uint256",
          "name": "tokenId",
          "type": "uint256"
        }
      ],
      "name": "ownerOf",
      "outputs": [
        {
          "internalType": "address",
          "name": "",
          "type": "address"
        }
      ],
      "stateMutability": "view",
      "type": "function"
    },
    {
      "inputs": [],
      "name": "renounceOwnership",
      "outputs": [],
      "stateMutability": "nonpayable",
      "type": "function"
    },
    {
      "inputs": [
        {
          "internalType": "address",
          "name": "from",
          "type": "address"
        },
        {
          "internalType": "address",
          "name": "to",
          "type": "address"
        },
        {
          "internalType": "uint256",
          "name": "tokenId",
          "type": "uint256"
        }
      ],
      "name": "safeTransferFrom",
      "outputs": [],
      "stateMutability": "nonpayable",
      "type": "function"
    },
    {
      "inputs": [
        {
          "internalType": "address",
          "name": "from",
          "type": "address"
        },
        {
          "internalType": "address",
          "name": "to",
          "type": "address"
        },
        {
          "internalType": "uint256",
          "name": "tokenId",
          "type": "uint256"
        },
        {
          "internalType": "bytes",
          "name": "data",
          "type": "bytes"
        }
      ],
      "name": "safeTransferFrom",
      "outputs": [],
      "stateMutability": "nonpayable",
      "type": "function"
    },
    {
      "inputs": [
        {
          "internalType": "address",
          "name": "operator",
          "type": "address"
        },
        {
          "internalType": "bool",
          "name": "approved",
          "type": "bool"
        }
      ],
      "name": "setApprovalForAll",
      "outputs": [],
      "stateMutability": "nonpayable",
      "type": "function"
    },
    {
      "inputs": [
        {
          "internalType": "bytes4",
          "name": "interfaceId",
          "type": "bytes4"
        }
      ],
      "name": "supportsInterface",
      "outputs": [
        {
          "internalType": "bool",
          "name": "",
          "type": "bool"
        }
      ],
      "stateMutability": "view",
      "type": "function"
    },
    {
      "inputs": [],
      "name": "symbol",
      "outputs": [
        {
          "internalType": "string",
          "name": "",
          "type": "string"
        }
      ],
      "stateMutability": "view",
      "type": "function"
    },
    {
      "inputs": [
        {
          "internalType": "uint256",
          "name": "tokenId",
          "type": "uint256"
        }
      ],
      "name": "tokenURI",
      "outputs": [
        {
          "internalType": "string",
          "name": "",
          "type": "string"
        }
      ],
      "stateMutability": "view",
      "type": "function"
    },
    {
      "inputs": [
        {
          "internalType": "uint256",
          "name": "tokenId",
          "type": "uint256"
        }
      ],
      "name": "token_url",
      "outputs": [
        {
          "internalType": "string",
          "name": "",
          "type": "string"
        }
      ],
      "stateMutability": "view",
      "type": "function"
    },
    {
      "inputs": [
        {
          "internalType": "address",
          "name": "from",
          "type": "address"
        },
        {
          "internalType": "address",
          "name": "to",
          "type": "address"
        },
        {
          "internalType": "uint256",
          "name": "tokenId",
          "type": "uint256"
        }
      ],
      "name": "transferFrom",
      "outputs": [],
      "stateMutability": "nonpayable",
      "type": "function"
    },
    {
      "inputs": [
        {
          "internalType": "address",
          "name": "newOwner",
          "type": "address"
        }
      ],
      "name": "transferOwnership",
      "outputs": [],
      "stateMutability": "nonpayable",
      "type": "function"
    },
    {
      "inputs": [
        {
          "internalType": "uint256",
          "name": "tokenId",
          "type": "uint256"
        }
      ],
      "name": "withdraw",
      "outputs": [],
      "stateMutability": "nonpayable",
      "type": "function"
    },
    {
      "stateMutability": "payable",
      "type": "receive"
    }
  ],
  "bytecode": "0x60806040523461036b57604080519081016001600160401b0381118282101761028157604090815260088252675376672054696d6560c01b602083015280519081016001600160401b038111828210176102815760405260058152645354696d6560d81b602082015281516001600160401b038111610281575f54600181811c91168015610361575b602082101461026357601f81116102ff575b50602092601f82116001146102a057928192935f92610295575b50508160011b915f199060031b1c1916175f555b80516001600160401b03811161028157600154600181811c91168015610277575b602082101461026357601f8111610200575b50602091601f82116001146101a0579181925f92610195575b50508160011b915f199060031b1c1916176001555b33156101825760068054336001600160a01b03198216811790925560405191906001600160a01b03167f8be0079c531659141344cd1fd0a4f28419497f9722a3daafe3b4186f6b6457e05f80a36125ff90816103708239f35b631e4fbdf760e01b5f525f60045260245ffd5b015190505f80610114565b601f1982169260015f52805f20915f5b8581106101e8575083600195106101d0575b505050811b01600155610129565b01515f1960f88460031b161c191690555f80806101c2565b919260206001819286850151815501940192016101b0565b60015f527fb10e2d527612073b26eecdfd717e6a320cf44b4afac2b0732d9fcbe2b7fa0cf6601f830160051c81019160208410610259575b601f0160051c01905b81811061024e57506100fb565b5f8155600101610241565b9091508190610238565b634e487b7160e01b5f52602260045260245ffd5b90607f16906100e9565b634e487b7160e01b5f52604160045260245ffd5b015190505f806100b4565b601f198216935f8052805f20915f5b8681106102e757508360019596106102cf575b505050811b015f556100c8565b01515f1960f88460031b161c191690555f80806102c2565b919260206001819286850151815501940192016102af565b5f80527f290decd9548b62a8d60345a988386fc84ba6bc95484008f6362f93160ef3e563601f830160051c81019160208410610357575b601f0160051c01905b81811061034c575061009a565b5f815560010161033f565b9091508190610336565b90607f1690610088565b5f80fdfe608080604052600436101561001c575b50361561001a575f80fd5b005b5f905f3560e01c90816301ffc9a714611e245750806306fdde0314611d6c578063081812fc14611d30578063095ea7b314611c465780631249c58b146119e657806323b872dd146119cf5780632e1a7d4d1461194357806342842e0e146119145780636352211e146118e457806370a0823114611893578063715018a614611838578063832995a3146104945780638da5cb5b1461046c57806395d89b4114610364578063a22cb465146102c9578063b88d4fde14610235578063c87b56dd146101d8578063e985e9c5146101805763f2fde38b0361000f573461017d57602036600319011261017d5761010e611eb3565b61011661213f565b6001600160a01b0316801561016957600680546001600160a01b0319811683179091556001600160a01b03167f8be0079c531659141344cd1fd0a4f28419497f9722a3daafe3b4186f6b6457e05f80a380f35b631e4fbdf760e01b82526004829052602482fd5b80fd5b503461017d57604036600319011261017d57604061019c611eb3565b916101a5611ec9565b9260018060a01b031681526005602052209060018060a01b03165f52602052602060ff60405f2054166040519015158152f35b34610231576020366003190112610231576101f460043561210b565b505f604051610204602082611f19565b5261022d604051610216602082611f19565b5f8152604051918291602083526020830190611e8f565b0390f35b5f80fd5b346102315760803660031901126102315761024e611eb3565b610256611ec9565b906044356064359267ffffffffffffffff841161023157366023850112156102315783600401359261028784611f4f565b936102956040519586611f19565b8085523660248288010111610231576020815f92602461001a990183890137860101526102c3838383611f6b565b3361239b565b34610231576040366003190112610231576102e2611eb3565b60243590811515809203610231576001600160a01b031690811561035157335f52600560205260405f20825f5260205260405f2060ff1981541660ff83161790556040519081527f17307eab39ab6107e8899845ad3d59bd9653f200f220920489ca2b5937696c3160203392a3005b50630b61174360e31b5f5260045260245ffd5b34610231575f366003190112610231576040515f6001548060011c90600181168015610462575b60208310811461044e5782855290811561042a57506001146103cc575b61022d836103b881850382611f19565b604051918291602083526020830190611e8f565b91905060015f527fb10e2d527612073b26eecdfd717e6a320cf44b4afac2b0732d9fcbe2b7fa0cf6915f905b808210610410575090915081016020016103b86103a8565b9192600181602092548385880101520191019092916103f8565b60ff191660208086019190915291151560051b840190910191506103b890506103a8565b634e487b7160e01b5f52602260045260245ffd5b91607f169161038b565b34610231575f366003190112610231576006546040516001600160a01b039091168152602090f35b3461023157602036600319011261023157600435600754810361182957610e104204600181018091116118155760189006603c8042040691603c420690600c830690601e820291808304601e1490151715611815578460011c8201809211611815576006850285810460061486151715611815576006840292848404600614851517156118155761052490612198565b9061052e90612198565b9261053890612198565b610541866122e0565b61054a886122e0565b90610554876122e0565b604080517f3c7376672077696474683d2234303022206865696768743d223430302220786d6020808301919091527f6c6e733d22687474703a2f2f7777772e77332e6f72672f323030302f7376672292820192909252601f60f91b60608201527f3c696d61676520687265663d22646174613a696d6167652f7376672b786d6c3b60618201527f6261736536342c50484e325a79423462577875637a30696148523063446f764c60818201527f336433647935334d793576636d63764d6a41774d43397a646d6369494868746260a18201527f44707a6347466a5a54306963484a6c63325679646d5569494864705a48526f5060c18201527f5349314e4334784f5451694947686c6157646f644430694e6a63754d7a41314960e18201527f69427a64486c735a5430696332686863475574636d56755a4756796157356e4f6101018201527f6d646c6232316c64484a70593142795a574e7063326c76626a74305a5868304c6101218201527f584a6c626d526c636d6c755a7a706e5a5739745a58527961574e51636d566a616101418201527f584e7062323437615731685a325574636d56755a4756796157356e4f6d3977646101618201527f476c746158706c5558566862476c306554746d615778734c584a31624755365a6101818201527f585a6c626d396b5a44746a62476c774c584a31624755365a585a6c626d396b5a6101a18201527f434967646d6c6c64304a76654430694d43417749444d304e6934774f5341304d6101c18201527f6a6b754f444969506a78775958526f49475139496b30354c6a59674d7a67354c6101e18201527f6a4534597930304c6a5133494445794c6a4d304c5467754d6a67674d6a51754e6102018201527f7a59744f533432494451774c6a597a61444d304e693478597a41744d6a45754d6102218201527f4459744d5334324c5455314c6a55784c5445314c6a4d314c5463794c6a4d334c6102418201527f5449754e4455744e53347a4c5445784c6a41344c5467754e6930784f4334354d6102618201527f7930784d79347a4e7930304d7934314d5330794d79347a4f4330334e79347a4e6102818201527f4330794d6934344d5330324d7934314e5330324e6934314d69417a4c6a55324c6102a18201527f5445784c6a4d754e6a45744d6a51754e7941784d7934304e4330794e4334784d6102c18201527f5341784e5334334c6a637849444d344c6a4534494445774c6a453549444d304c6102e18201527f6a51334c5445344c6a41314c5445754d7a55744d5441754d6a51674d6934324f6103018201527f5330334c6a5533494459754e6a59744d544d754e5445744e4334314d6930784f6103218201527f5334304c6a4d334c5451754e4459674d5334304c5445324c6a6331624330784c6103418201527f6a51744c6a4178597930784c6a51794c5451754d6a59744d6934324e7930314c6103618201527f6a55334c5449754e7a6b744d5445754d5459674d6a41754e6a67744d5441754f6103818201527f5451674d5449754d6a4d744d544d754e4455674d6934314d6930794e7934324d6103a18201527f7930354c6a6b314c5445304c6a55794c5449754f546b744d7934304e6930354c6103c18201527f6a51354c5445334c6a4179494445774c6a59794c5463754d5445674e6934774f6103e18201527f5330784d4334344c6a67794c544d314c6a63744d6934344d5330784d7934794e6104018201527f6930784c6a45344c5445774c6a457a4c5451754f546b744d544d754d5456734d6104218201527f53347a4f5330784c6a526a4d7934344e6930314c6a413449444d754e5455744d6104418201527f6934794e43417a4c6a59314c5463754f4777314c6a55794c545577597a45754d6104618201527f7930324c6a6b78494451754e446b744d5455754d544d674d5334354f5330794d6104818201527f43347a4e43307a4c6a4934494449754e4330304c6a4932494451754e4445744e6104a18201527f5334304f4341784d53347a4d5330754e7a45674d7934354f5330784c6a4178496104c18201527f4445754e7a45744c6a45674e5334304d7930754d6a45744c6a41344c544d754d6104e18201527f6a45744c6a55344c5451754d5467744d533430494441744f4334344f4341794c6105018201527f6a51334c5445354c6a6b33494441744d6a55754d5449744e43347a4f4341784c6105218201527f6a55354c5467754f4341784e53347a4e6930354c6a6333494445354c6a55304c6105418201527f5451754e4459744d6934354f5330754f5467744d6934794f5330324c6a6b344c6105618201527f5449754e7a6b744d793478494451754e6a4d744e5334794e7941354c6a4d794c6105818201527f5467754d7a63674d544d754f5459744e7934304d53307a4c6a6b794c5455754d6105a18201527f7a59744e4334794d6930784d4334774f4330324c6a6b344c5451754d5451744d6105c18201527f5441754e444d744d53347a4e4330794e6934354c5445794c6a49314c544d304c6105e18201527f6a67354c5449754e6a6b674d5334354e7930784d7934794e7941784e6934354e6106018201527f6930784d7934334e5341794d5334784e5330754f5341334c6a637949444d754e6106218201527f6a59674e69347a4d53307a4c6a5935494445784c6a59744d5451754d7a67674d6106418201527f5441754d7a55744d6a49754e5455744d5334324f53307a4d5334324c54457a4c6106618201527f6a41794c5451754e4459744e5334314f5330784d5334794d7930784e6934784e6106818201527f7930784e6934314e5330784f5334334d7930784c6a4935494449754e79307a4c6106a18201527f6a6732494467754e7a4d744e4334784f5341784d6934784e43307a4c6a51674e6106c18201527f5334344e6930304c6a6b30494445784c6a51334c5463754e7a63674d5463754e6106e18201527f7a63744d7934774d5341324c6a63744e6934304e4341784d4334314c5467754f6107018201527f546b674d5459754d5451744e43347a4f5330784c6a41304c544d754e5467674d6107218201527f53347a4e4330354c6a4d304c5467754f4330794c6a557a4c5451754e4455744d6107418201527f7934324c5463754f5455744f4334344c546b754d7a51744c6a633349444d754d6107618201527f6a67744d53347a494451754d5449744d533430494467754d7a63744e6934314f6107818201527f4330304c6a67794c5459754e4451744d5455754f5330784d7934354e6930794d6107a18201527f4334354d79417749446b754d4449674e69347a4f43417a4d6934784e5341344c6107c18201527f6a4979494451794c6a4179494445754e7a67674f5334314e6934794e7941784d6107e18201527f5334344f5341304c6a4d30494445314c6a4d334c5445754e6a6b674e43347a4c6108018201527f5334354f5341784e7934314d7941784c6a51674d6a4d754d7a55674d6934304e6108218201527f4341794c6a597a4c544d754e4463674e4334354d5330334c6a67674d6a41754d6108418201527f7a45744e53347a4d6941784f4334354d5330314c6a513549444d324c6a4d674d6108618201527f7934784d7941314e43347a4e4341784d7934324e4341794f4334314e5341794e6108818201527f53343149444d314c6a4934494449774c6a51304944637a4c6a6735624330304c6108a18201527f6a63674d6a63754e454d784d7a59754d444d674d7a4d794c6a677a494451304c6108c18201527f6a417a494449354e4334784e6941354c6a597949444d344f5334784e336f69496108e18201527f484e306557786c50534a6d615778734f694d304d5451784e4459694c7a34384c6109018201527f334e325a7a343d222077696474683d2234303022206865696768743d2234303061092182015270111037b830b1b4ba3c9e9118171991179f60791b6109418201527f3c726563742077696474683d2234303022206865696768743d223430302220666109528201527f696c6c3d22726762612832362c32362c34362c302e3729222f3e0000000000006109728201527f3c636972636c652063783d22323030222063793d223230302220723d2231383061098c8201527f222066696c6c3d222331363231336522207374726f6b653d22233066333436306109ac82015273111039ba3937b5b296bbb4b23a341e911c11179f60611b6109cc8201527f3c7465787420783d223230302220793d2234302220746578742d616e63686f726109e08201527f3d226d6964646c65222066696c6c3d2277686974652220666f6e742d73697a65610a0082018190526e1e911999111f18991e17ba32bc3a1f60891b610a208301527f3c7465787420783d223336302220793d223231302220746578742d616e63686f610a2f8301527f723d226d6964646c65222066696c6c3d2277686974652220666f6e742d73697a610a4f83018190526e329e911999111f199e17ba32bc3a1f60891b610a6f8401527f3c7465787420783d223230302220793d223338302220746578742d616e63686f610a7e840152610a9e8301526e329e911999111f1b1e17ba32bc3a1f60891b610abe8301527f3c7465787420783d2234302220793d223231302220746578742d616e63686f72610acd830152610aed8201526d1e911999111f1c9e17ba32bc3a1f60911b610b0d8201527f3c6c696e652078313d22323030222079313d22323030222078323d2232303022610b1b8201527f2079323d2231323022207374726f6b653d222366663662366222207374726f6b610b3b8201527f652d77696474683d223822207472616e73666f726d3d22726f74617465280000610b5b8201528651909889979396939092829101610b7989015e6b10191818101918181491179f60a11b610b79918801918201527f3c6c696e652078313d22323030222079313d22323030222078323d2232303022610b858201527f2079323d22383022207374726f6b653d222334656364633422207374726f6b65610ba58201527f2d77696474683d223622207472616e73666f726d3d22726f7461746528000000610bc58201528151918290602001610be283015e01610b79016b10191818101918181491179f60a11b6069820152607581017f3c6c696e652078313d22323030222079313d22323030222078323d22323030229052609581017f2079323d22363022207374726f6b653d222366666536366422207374726f6b65905260b581017f2d77696474683d223222207472616e73666f726d3d22726f746174652800000090528151602081930160d283015e6b10191818101918181491179f60a11b60d292909101918201527f3c636972636c652063783d22323030222063793d223230302220723d2231322260de82015270103334b6361e9111b3331b311b3111179f60791b60fe8201527f3c7465787420783d223230302220793d223332302220746578742d616e63686f61010f8201527f723d226d6964646c65222066696c6c3d22233465636463342220666f6e742d7361012f8201526834bd329e91191a111f60b91b61014f8201528151916069820191839160200190610158015e0160690160868101601d60f91b905281516020819301608783015e0160860160018101601d60f91b905281516020819301600283015e01600101600181016c1e17ba32bc3a1f1e17b9bb339f60991b90520360010160121981018352600d016115aa9083611f19565b6115b390612198565b926115bd90612198565b936115c790612198565b916115d190612198565b906115db90612334565b91604051948594707b226e616d65223a225376672054696d6560781b602087015280516020819201603188015e7f222c226465736372697074696f6e223a224120626c6f636b636861696e20636c6031918701918201527f6f636b20746861742073686f77732063757272656e742074696d65222c00000060518201526d2261747472696275746573223a5b60901b606e8201527f7b2274726169745f74797065223a22486f7572222c2276616c7565223a220000607c8201528151918290602001609a83015e0160310162089f4b60ea1b6069820152606c81017f7b2274726169745f74797065223a224d696e757465222c2276616c7565223a22905281516020819301608c83015e0160690162089f4b60ea1b6023820152602681017f7b2274726169745f74797065223a225365636f6e64222c2276616c7565223a22905281516020819301604683015e0160230161227d60f01b6023820152602581017f5d2c22696d616765223a22646174613a696d6167652f7376672b786d6c3b6261905260458101641cd94d8d0b60da1b905281516020819301604a83015e0160230161227d60f01b602782015203602701601d19810182526002016117a09082611f19565b6117a990612334565b6040518091602082017f646174613a6170706c69636174696f6e2f6a736f6e3b6261736536342c000000905280516020819201603d84015e8101603d81015f905203603d01601f19810182526117ff9082611f19565b6040518091602082526020820161022d91611e8f565b634e487b7160e01b5f52601160045260245ffd5b630402498760e41b5f5260045ffd5b34610231575f3660031901126102315761185061213f565b600680546001600160a01b031981169091555f906001600160a01b03167f8be0079c531659141344cd1fd0a4f28419497f9722a3daafe3b4186f6b6457e08280a3005b34610231576020366003190112610231576001600160a01b036118b4611eb3565b1680156118d1575f526003602052602060405f2054604051908152f35b6322718ad960e21b5f525f60045260245ffd5b3461023157602036600319011261023157602061190260043561210b565b6040516001600160a01b039091168152f35b346102315761001a61192536611edf565b9060405192611935602085611f19565b5f84526102c3838383611f6b565b346102315760203660031901126102315760043561195f61213f565b6007548103611829576040805130815260208101929092527f7084f5476618d8e60b11ef0d7d3f06914655adb8793e28ff7f018d4c76d505d591a15f80808060018060a01b036006541647908282156119c6575bf1156119bb57005b6040513d5f823e3d90fd5b506108fc6119b3565b346102315761001a6119e036611edf565b91611f6b565b5f366003190112610231573315611c37576007545f1981146118155760018101600755602090604051611a198382611f19565b5f8082528281526002845260409020546001600160a01b03168015159081611c06575b33611bef575b5f848152600286526040812080546001600160a01b03191633908117909155859183907fddf252ad1be2c89b69c2b068fc378daa952ba7f163c4a11628f55a4df523b3ef9080a450611bdc5782333b611ad1575b604080513381526020810185905284917fb7656808f0e04b4af7a20f7ef1caa7669f0d781f1ca4cba31a3ba467880766c991a1604051908152f35b611b099160405180938192630a85bd0160e11b83523360048401525f6024840152866044840152608060648401526084830190611e8f565b03815f335af15f9181611b9c575b50611b6b57823d15611b63573d90611b2e82611f4f565b91611b3c6040519384611f19565b82523d5f8284013e5b81519182611b6057633250574960e11b5f523360045260245ffd5b01fd5b606090611b45565b6001600160e01b03191663757a42ff60e11b01611b89578282611a96565b633250574960e11b5f523360045260245ffd5b9091508381813d8311611bd5575b611bb48183611f19565b8101031261023157516001600160e01b031981168103610231579084611b17565b503d611baa565b6339e3563760e11b5f525f60045260245ffd5b335f526003855260405f2060018154019055611a42565b5f8481526004602052604080822080546001600160a01b031916905582825260038752902080545f19019055611a3c565b63773f99b360e11b5f5260045ffd5b3461023157604036600319011261023157611c5f611eb3565b602435611c6b8161210b565b33151580611d1d575b80611cf0575b611cdd5781906001600160a01b0384811691167f8c5be1e5ebec7d5bd14f71427d1e84f3dd0314c0f7b2291e5b200ac8c7c3b9255f80a45f90815260046020526040902080546001600160a01b0319166001600160a01b03909216919091179055005b63a9fbf51f60e01b5f523360045260245ffd5b506001600160a01b0381165f90815260056020908152604080832033845290915290205460ff1615611c7a565b506001600160a01b038116331415611c74565b3461023157602036600319011261023157600435611d4d8161210b565b505f526004602052602060018060a01b0360405f205416604051908152f35b34610231575f366003190112610231576040515f5f548060011c90600181168015611e1a575b60208310811461044e5782855290811561042a5750600114611dbe5761022d836103b881850382611f19565b5f8080527f290decd9548b62a8d60345a988386fc84ba6bc95484008f6362f93160ef3e563939250905b808210611e00575090915081016020016103b86103a8565b919260018160209254838588010152019101909291611de8565b91607f1691611d92565b34610231576020366003190112610231576004359063ffffffff60e01b8216809203610231576020916380ac58cd60e01b8114908115611e7e575b8115611e6d575b5015158152f35b6301ffc9a760e01b14905083611e66565b635b5e139f60e01b81149150611e5f565b805180835260209291819084018484015e5f828201840152601f01601f1916010190565b600435906001600160a01b038216820361023157565b602435906001600160a01b038216820361023157565b6060906003190112610231576004356001600160a01b038116810361023157906024356001600160a01b0381168103610231579060443590565b90601f8019910116810190811067ffffffffffffffff821117611f3b57604052565b634e487b7160e01b5f52604160045260245ffd5b67ffffffffffffffff8111611f3b57601f01601f191660200190565b6001600160a01b03909116919082156120f8575f828152600260205260409020546001600160a01b031692829033151580612063575b5084612030575b805f52600360205260405f2060018154019055815f52600260205260405f20816bffffffffffffffffffffffff60a01b825416179055847fddf252ad1be2c89b69c2b068fc378daa952ba7f163c4a11628f55a4df523b3ef5f80a46001600160a01b031680830361201857505050565b6364283d7b60e01b5f5260045260245260445260645ffd5b5f82815260046020526040902080546001600160a01b0319169055845f52600360205260405f205f198154019055611fa8565b909150806120a7575b156120795782905f611fa1565b828461209157637e27328960e01b5f5260045260245ffd5b63177e802f60e01b5f523360045260245260445ffd5b5033841480156120d6575b8061206c57505f838152600460205260409020546001600160a01b0316331461206c565b505f84815260056020908152604080832033845290915290205460ff166120b2565b633250574960e11b5f525f60045260245ffd5b5f818152600260205260409020546001600160a01b031690811561212d575090565b637e27328960e01b5f5260045260245ffd5b6006546001600160a01b0316330361215357565b63118cdaa760e01b5f523360045260245ffd5b9061217082611f4f565b61217d6040519182611f19565b828152809261218e601f1991611f4f565b0190602036910137565b805f9172184f03e93ff9f4daa797ed6e38ed64bf6a1f0160401b8210156122bd575b806d04ee2d6d415b85acef8100000000600a9210156122a2575b662386f26fc1000081101561228e575b6305f5e10081101561227d575b61271081101561226e575b6064811015612260575b1015612255575b600a602161221d60018501612166565b938401015b5f1901916f181899199a1a9b1b9c1cb0b131b232b360811b8282061a835304801561225057600a9091612222565b505090565b60019091019061220d565b606460029104930192612206565b612710600491049301926121fc565b6305f5e100600891049301926121f1565b662386f26fc10000601091049301926121e4565b6d04ee2d6d415b85acef8100000000602091049301926121d4565b506040915072184f03e93ff9f4daa797ed6e38ed64bf6a1f0160401b81046121ba565b600a81101561232b5761232860216122f9602093612198565b604051938491600360fc1b828401528051918291018484015e81015f838201520301601f198101835282611f19565b90565b61232890612198565b60405161232891612346606083611f19565b604082527f4142434445464748494a4b4c4d4e4f505152535455565758595a61626364656660208301527f6768696a6b6c6d6e6f707172737475767778797a303132333435363738392b2f60408301526124d1565b823b6123a9575b5050505050565b604051630a85bd0160e11b81526001600160a01b0391821660048201529181166024830152604482019390935260806064820152911691602090829081906123f5906084830190611e8f565b03815f865af15f918161248c575b5061245857503d15612451573d61241981611f4f565b906124276040519283611f19565b81523d5f602083013e5b8051908161244c5782633250574960e11b5f5260045260245ffd5b602001fd5b6060612431565b6001600160e01b03191663757a42ff60e11b0161247a57505f808080806123a2565b633250574960e11b5f5260045260245ffd5b9091506020813d6020116124c9575b816124a860209383611f19565b8101031261023157516001600160e01b03198116810361023157905f612403565b3d915061249b565b9190918051156125b2578051600281018091116118155760039004600281901b906001600160fe1b038116036118155761250a90612166565b90602082019080815182019560208701908151925f83525b888110612564575050600393949596505251068060011461255257600214612548575090565b603d905f19015390565b50603d90815f19820153600119015390565b600360049199969901986001603f8b5182828260121c16870101518453828282600c1c16870101518385015382828260061c1687010151600285015316840101516003820153019497612522565b5090506040516125c3602082611f19565b5f81529056fea264697066735822122074a8521e0724312db38ee9437cd0f326b6e5e47bc1fa7e0c4150576dab7eb99764736f6c634300081c0033",
  "linkReferences": {},
  "deployedLinkReferences": {},
  "immutableReferences": {},
  "inputSourceName": "project/contracts/SvgNft.sol",
  "buildInfoId": "solc-0_8_28-56bbf43fa72c3722b279c23afd2c7bd354cb6bef"
}